{
  "_format": "hh-sol-artifact-1",
  "contractName": "Bank",
  "sourceName": "contracts/bankContract.sol",
  "abi": [
    {
      "inputs": [],
      "stateMutability": "nonpayable",
      "type": "constructor"
    },
    {
      "inputs": [],
      "name": "bankName",
      "outputs": [
        {
          "internalType": "string",
          "name": "",
          "type": "string"
        }
      ],
      "stateMutability": "view",
      "type": "function"
    },
    {
      "inputs": [],
      "name": "bankOwner",
      "outputs": [
        {
          "internalType": "address",
          "name": "",
          "type": "address"
        }
      ],
      "stateMutability": "view",
      "type": "function"
    },
    {
      "inputs": [
        {
          "internalType": "address",
          "name": "",
          "type": "address"
        }
      ],
      "name": "customerBalance",
      "outputs": [
        {
          "internalType": "uint256",
          "name": "",
          "type": "uint256"
        }
      ],
      "stateMutability": "view",
      "type": "function"
    },
    {
      "inputs": [],
      "name": "depositMoney",
      "outputs": [],
      "stateMutability": "payable",
      "type": "function"
    },
    {
      "inputs": [],
      "name": "getBankBalance",
      "outputs": [
        {
          "internalType": "uint256",
          "name": "",
          "type": "uint256"
        }
      ],
      "stateMutability": "view",
      "type": "function"
    },
    {
      "inputs": [],
      "name": "getCustomerBalance",
      "outputs": [
        {
          "internalType": "uint256",
          "name": "",
          "type": "uint256"
        }
      ],
      "stateMutability": "view",
      "type": "function"
    },
    {
      "inputs": [
        {
          "internalType": "string",
          "name": "_name",
          "type": "string"
        }
      ],
      "name": "setBankName",
      "outputs": [],
      "stateMutability": "nonpayable",
      "type": "function"
    },
    {
      "inputs": [
        {
          "internalType": "address payable",
          "name": "_to",
          "type": "address"
        },
        {
          "internalType": "uint256",
          "name": "_total",
          "type": "uint256"
        }
      ],
      "name": "withDrawMoney",
      "outputs": [],
      "stateMutability": "payable",
      "type": "function"
    }
  ],
  "bytecode": "0x608060405234801561001057600080fd5b50600080546001600160a01b03191633179055610748806100326000396000f3fe60806040526004361061007b5760003560e01c80637b83b50b1161004e5780637b83b50b14610110578063a853409a14610125578063b39d7b7c14610147578063e147aaa71461015a57600080fd5b806316c05aa21461008057806327d358011461008a57806337ebe47b146100b557806370142690146100f0575b600080fd5b610088610192565b005b34801561009657600080fd5b5061009f61021c565b6040516100ac9190610611565b60405180910390f35b3480156100c157600080fd5b506100e26100d0366004610519565b60026020526000908152604090205481565b6040519081526020016100ac565b3480156100fc57600080fd5b5061008861010b366004610567565b6102aa565b34801561011c57600080fd5b506100e2610335565b34801561013157600080fd5b50336000908152600260205260409020546100e2565b61008861015536600461053c565b6103b4565b34801561016657600080fd5b5060005461017a906001600160a01b031681565b6040516001600160a01b0390911681526020016100ac565b346101f65760405162461bcd60e51b815260206004820152602960248201527f596f75206e65656420746f206465706f73697420736f6d6520616d6f756e74206044820152686f66206d6f6e65792160b81b60648201526084015b60405180910390fd5b3360009081526002602052604081208054349290610215908490610664565b9091555050565b6001805461022990610693565b80601f016020809104026020016040519081016040528092919081815260200182805461025590610693565b80156102a25780601f10610277576101008083540402835291602001916102a2565b820191906000526020600020905b81548152906001019060200180831161028557829003601f168201915b505050505081565b6000546001600160a01b0316331461031e5760405162461bcd60e51b815260206004820152603160248201527f596f75206d75737420626520746865206f776e657220746f2073657420746865604482015270206e616d65206f66207468652062616e6b60781b60648201526084016101ed565b8051610331906001906020840190610480565b5050565b600080546001600160a01b031633146103af5760405162461bcd60e51b815260206004820152603660248201527f596f75206d75737420626520746865206f776e6572206f66207468652062616e60448201527535903a379039b2b29030b636103130b630b731b2b99760511b60648201526084016101ed565b504790565b336000908152600260205260409020548111156104215760405162461bcd60e51b815260206004820152602560248201527f596f75206861766520696e7375666669656e742066756e647320746f20776974604482015264686472617760d81b60648201526084016101ed565b336000908152600260205260408120805483929061044090849061067c565b90915550506040516001600160a01b0383169082156108fc029083906000818181858888f1935050505015801561047b573d6000803e3d6000fd5b505050565b82805461048c90610693565b90600052602060002090601f0160209004810192826104ae57600085556104f4565b82601f106104c757805160ff19168380011785556104f4565b828001600101855582156104f4579182015b828111156104f45782518255916020019190600101906104d9565b50610500929150610504565b5090565b5b808211156105005760008155600101610505565b60006020828403121561052a578081fd5b8135610535816106fa565b9392505050565b6000806040838503121561054e578081fd5b8235610559816106fa565b946020939093013593505050565b600060208284031215610578578081fd5b813567ffffffffffffffff8082111561058f578283fd5b818401915084601f8301126105a2578283fd5b8135818111156105b4576105b46106e4565b604051601f8201601f19908116603f011681019083821181831017156105dc576105dc6106e4565b816040528281528760208487010111156105f4578586fd5b826020860160208301379182016020019490945295945050505050565b6000602080835283518082850152825b8181101561063d57858101830151858201604001528201610621565b8181111561064e5783604083870101525b50601f01601f1916929092016040019392505050565b60008219821115610677576106776106ce565b500190565b60008282101561068e5761068e6106ce565b500390565b600181811c908216806106a757607f821691505b602082108114156106c857634e487b7160e01b600052602260045260246000fd5b50919050565b634e487b7160e01b600052601160045260246000fd5b634e487b7160e01b600052604160045260246000fd5b6001600160a01b038116811461070f57600080fd5b5056fea2646970667358221220164e35497896f618cd006538218c284388bbf801fa5fe81f76c9e943c291073f64736f6c63430008040033",
  "linkReferences": {},
  "deployedLinkReferences": {}
}