{
  "_format": "hh-sol-artifact-1",
  "contractName": "SharedWallet",
  "sourceName": "contracts/sharedWalletContract.sol",
  "abi": [
    {
      "inputs": [],
      "stateMutability": "nonpayable",
      "type": "constructor"
    },
    {
      "inputs": [
        {
          "internalType": "address",
          "name": "addrNewOwner",
          "type": "address"
        }
      ],
      "name": "addWalletOwner",
      "outputs": [],
      "stateMutability": "nonpayable",
      "type": "function"
    },
    {
      "inputs": [],
      "name": "chkWalletOwner",
      "outputs": [
        {
          "internalType": "bool",
          "name": "",
          "type": "bool"
        }
      ],
      "stateMutability": "view",
      "type": "function"
    },
    {
      "inputs": [],
      "name": "depositMoney",
      "outputs": [],
      "stateMutability": "payable",
      "type": "function"
    },
    {
      "inputs": [],
      "name": "getWalletBalance",
      "outputs": [
        {
          "internalType": "uint256",
          "name": "",
          "type": "uint256"
        }
      ],
      "stateMutability": "view",
      "type": "function"
    },
    {
      "inputs": [
        {
          "internalType": "string",
          "name": "_name",
          "type": "string"
        }
      ],
      "name": "setWalletName",
      "outputs": [],
      "stateMutability": "nonpayable",
      "type": "function"
    },
    {
      "inputs": [],
      "name": "walletBalance",
      "outputs": [
        {
          "internalType": "uint256",
          "name": "",
          "type": "uint256"
        }
      ],
      "stateMutability": "view",
      "type": "function"
    },
    {
      "inputs": [],
      "name": "walletName",
      "outputs": [
        {
          "internalType": "string",
          "name": "",
          "type": "string"
        }
      ],
      "stateMutability": "view",
      "type": "function"
    },
    {
      "inputs": [
        {
          "internalType": "address payable",
          "name": "_to",
          "type": "address"
        },
        {
          "internalType": "uint256",
          "name": "_total",
          "type": "uint256"
        }
      ],
      "name": "withDrawMoney",
      "outputs": [],
      "stateMutability": "payable",
      "type": "function"
    }
  ],
  "bytecode": "0x608060405234801561001057600080fd5b50336000908152600260205260409020805460ff191660011790556105ea8061003a6000396000f3fe60806040526004361061007b5760003560e01c8063b39d7b7c1161004e578063b39d7b7c1461012d578063cd0a314b14610140578063cf8d8ca014610156578063ff6271361461017857600080fd5b806316c05aa214610080578063329a27e71461008a5780638763298b146100ae57806393dfbd9e146100d3575b600080fd5b610088610198565b005b34801561009657600080fd5b506001545b6040519081526020015b60405180910390f35b3480156100ba57600080fd5b506100c36101cc565b60405190151581526020016100a5565b3480156100df57600080fd5b506100886100ee3660046103bb565b336000818152600260205260409020805460ff19166001179055506001600160a01b03166000908152600260205260409020805460ff19166001179055565b61008861013b3660046103de565b6101f5565b34801561014c57600080fd5b5061009b60015481565b34801561016257600080fd5b5061016b610262565b6040516100a591906104b3565b34801561018457600080fd5b50610088610193366004610409565b6102f0565b336000818152600260205260409020805460ff1916600117905534600160008282546101c49190610506565b909155505050565b3360009081526002602052604081205460ff161515600114156101ef5750600190565b50600090565b336000818152600260205260409020805460ff191660011790558160016000828254610221919061051e565b90915550506040516001600160a01b0384169083156108fc029084906000818181858888f1935050505015801561025c573d6000803e3d6000fd5b50505050565b6000805461026f90610535565b80601f016020809104026020016040519081016040528092919081815260200182805461029b90610535565b80156102e85780601f106102bd576101008083540402835291602001916102e8565b820191906000526020600020905b8154815290600101906020018083116102cb57829003601f168201915b505050505081565b336000818152600260205260409020805460ff19166001179055815161031d906000906020850190610322565b505050565b82805461032e90610535565b90600052602060002090601f0160209004810192826103505760008555610396565b82601f1061036957805160ff1916838001178555610396565b82800160010185558215610396579182015b8281111561039657825182559160200191906001019061037b565b506103a29291506103a6565b5090565b5b808211156103a257600081556001016103a7565b6000602082840312156103cc578081fd5b81356103d78161059c565b9392505050565b600080604083850312156103f0578081fd5b82356103fb8161059c565b946020939093013593505050565b60006020828403121561041a578081fd5b813567ffffffffffffffff80821115610431578283fd5b818401915084601f830112610444578283fd5b81358181111561045657610456610586565b604051601f8201601f19908116603f0116810190838211818310171561047e5761047e610586565b81604052828152876020848701011115610496578586fd5b826020860160208301379182016020019490945295945050505050565b6000602080835283518082850152825b818110156104df578581018301518582016040015282016104c3565b818111156104f05783604083870101525b50601f01601f1916929092016040019392505050565b6000821982111561051957610519610570565b500190565b60008282101561053057610530610570565b500390565b600181811c9082168061054957607f821691505b6020821081141561056a57634e487b7160e01b600052602260045260246000fd5b50919050565b634e487b7160e01b600052601160045260246000fd5b634e487b7160e01b600052604160045260246000fd5b6001600160a01b03811681146105b157600080fd5b5056fea2646970667358221220af1cd1bfdc1ebaeed5a2749ea41fcf725b9c0ac3a73b9cd990ac3835a498829064736f6c63430008040033",
  "linkReferences": {},
  "deployedLinkReferences": {}
}